:100000000C94CF040C94E1040C94E1040C94D910EA
:100010000C94E3330C94E1040C94E1040C94E1049B
:100020000C94E1040C94E1040C94E1040C943E2B38
:100030000C94E1040C94E1040C94E1040C94E104AC
:100040000C94522D0C94E1040C94C7260C94892630
:100050000C94E1040C94E1040C94E1040C94E1048C
:100060000C94E1040C94E104F40751105110FE07C4
:100070000B0818082508511029085110370851108D
:1000800041084B087C085110511051105508620866
:100090006F08C00ED10E000FD10E040F170F0A0FFC
:1000A000100F2C0F3A0F510F740FA60FB80FCC0F73
:1000B000DE0F632166216B216E217121742177216E
:1000C0007A217D21802183219221862192219221F2
:1000D00092219221922192218C2189218F21D92153
:1000E000DC21DF21E221E521E821EB21EE21372986
:1000F0003D2940294329482950295A29D829D82956
:10010000D829622965296E297729D829D829D8299B
:10011000D829D829D8297F29892995299D29A02935
:10012000A929B229B829D829D829C129CA29084A10
:10013000D73B3BCE016E84BCBFFDC12F3D6C7431FB
:100140009ABD56833DDA3D00C77F11BED9E4BB4C52
:100150003E916BAAAABE000000803F05A84CCDB21C
:10016000D44EB93836A9020C50B9918688083CA6FD
:10017000AAAA2ABE000000803F003E0D0A007C00B3
:10018000300031007C002C50696E3A002C4C6E3AE5
:10019000002C52583A002C4275663A002C002C571D
:1001A000506F733A002C002C4D506F733A003C4452
:1001B0006F6F72003C436865636B003C416C617219
:1001C0006D003C486F6D65003C486F6C64003C52AC
:1001D000756E003C49646C65005D0D0A005B6772DA
:1001E000626C312E30632E32303136303333302C66
:1001F000204444203230313630393036000D0A0088
:100200003D00244E005D0D0A0020530020460020D2
:100210005400204D3800204D3900204D3500204D30
:100220003400204D3300204D3200204D3100204D50
:100230003000204739340020473933002047393116
:10024000002047393000204732300020473231004B
:10025000204731390020473138002047313700200E
:1002600047004733382E00473830004733004732C5
:10027000004731004730005B005D0D0A005B544CC5
:100280004F3A005D0D0A002C005B4739323A005DA1
:100290000D0A002C003A003330003238005B470072
:1002A0005D0D0A003A002C005B5052423A00290DC5
:1002B0000A00206D61782074726176656C2C206D67
:1002C0006D0020616363656C2C206D6D2F73656319
:1002D0005E3200206D617820726174652C206D6D36
:1002E0002F6D696E002C20737465702F6D6D007A10
:1002F00000790078002028003D002400202872703A
:100300006D206D696E290D0A00202872706D206DB8
:100310006178290D0A2433313D002028686F6D690A
:100320006E672070756C6C2D6F66662C206D6D2964
:100330000D0A2433303D002028686F6D696E6720F8
:100340006465626F756E63652C206D736563290D3E
:100350000A2432373D002028686F6D696E6720736C
:1003600065656B2C206D6D2F6D696E290D0A243229
:10037000363D002028686F6D696E6720666565648C
:100380002C206D6D2F6D696E290D0A2432353D00CC
:10039000290D0A2432343D002028686F6D696E678C
:1003A0002064697220696E76657274206D61736B6A
:1003B0003A002028686F6D696E67206379636C6509
:1003C0002C20626F6F6C290D0A2432333D002028E7
:1003D00068617264206C696D6974732C20626F6F40
:1003E0006C290D0A2432323D002028736F66742078
:1003F0006C696D6974732C20626F6F6C290D0A240F
:1004000032313D0020287265706F727420696E630E
:100410006865732C20626F6F6C290D0A2432303DA1
:1004200000202861726320746F6C6572616E636571
:100430002C206D6D290D0A2431333D0020286A756A
:100440006E6374696F6E20646576696174696F6E3E
:100450002C206D6D290D0A2431323D00290D0A240E
:1004600031313D002028737461747573207265709A
:100470006F7274206D61736B3A00202870726F6226
:10048000652070696E20696E766572742C20626FCB
:100490006F6C290D0A2431303D0020286C696D698C
:1004A000742070696E7320696E766572742C206298
:1004B0006F6F6C290D0A24363D0020287374657017
:1004C00020656E61626C6520696E766572742C20A1
:1004D000626F6F6C290D0A24353D00290D0A243402
:1004E0003D00202864697220706F727420696E76F6
:1004F000657274206D61736B3A00290D0A24333DD7
:100500000020287374657020706F727420696E7695
:10051000657274206D61736B3A0020287374657086
:100520002069646C652064656C61792C206D73654D
:1005300063290D0A24323D002028737465702070F1
:10054000756C73652C2075736563290D0A24313D24
:100550000024303D002424202876696577204772E6
:10056000626C2073657474696E6773290D0A2423A5
:10057000202876696577202320706172616D65742B
:10058000657273290D0A24472028766965772070E3
:100590006172736572207374617465290D0A244950
:1005A000202876696577206275696C6420696E66BB
:1005B0006F290D0A244E20287669657720737461AF
:1005C0007274757020626C6F636B73290D0A2478E6
:1005D0003D76616C7565202873617665204772628F
:1005E0006C2073657474696E67290D0A244E783D1A
:1005F0006C696E652028736176652073746172740E
:10060000757020626C6F636B290D0A244320286388
:100610006865636B2067636F6465206D6F6465292F
:100620000D0A245820286B696C6C20616C61726D16
:10063000206C6F636B290D0A2448202872756E2088
:10064000686F6D696E67206379636C65290D0A7E3A
:1006500020286379636C65207374617274290D0AB4
:100660002120286665656420686F6C64290D0A3F47
:10067000202863757272656E74207374617475736B
:10068000290D0A6374726C2D782028726573657465
:10069000204772626C290D0A000D0A4772626C20B5
:1006A000312E3063205B27242720666F7220686517
:1006B0006C705D0D0A005D0D0A00526573746F72F7
:1006C000696E672064656661756C74730050676D50
:1006D00020456E6400436865636B20446F6F720051
:1006E00044697361626C656400456E61626C656447
:1006F0000043617574696F6E3A20556E6C6F636B61
:10070000656400272448277C2724582720746F20FD
:10071000756E6C6F636B00526573657420746F2027
:10072000636F6E74696E7565005B000D0A00486F3B
:100730006D696E67206661696C0050726F6265203A
:100740006661696C0041626F727420647572696ED3
:1007500067206379636C6500536F6674206C696D04
:1007600069740048617264206C696D697400414C61
:1007700041524D3A20000D0A00496E76616C696461
:100780002067636F64652049443A00556E6465666E
:10079000696E6564206665656420726174650055E4
:1007A0006E737570706F7274656420636F6D6D61C8
:1007B0006E64004D6F64616C2067726F7570207697
:1007C000696F6C6174696F6E00436865636B204488
:1007D0006F6F72004C696E65206F766572666C6F24
:1007E0007700486F6D696E67206E6F7420656E616B
:1007F000626C656400416C61726D206C6F636B00AC
:100800004E6F742069646C6500454550524F4D2011
:1008100072656164206661696C2E205573696E672C
:100820002064656661756C74730056616C75652033
:100830003C203320757365630053657474696E677B
:100840002064697361626C65640056616C75652033
:100850003C203000496E76616C6964207374617469
:10086000656D656E7400426164206E756D626572BF
:1008700020666F726D61740045787065637465649D
:1008800020636F6D6D616E64206C657474657200B9
:100890006572726F723A20006F6B0D0A0000003BA8
:1008A00043494E5256595D606265676A6C6E70725C
:1008B000747677797B7C7E7F818284858688898A3D
:1008C0008B8D8E8F909192939495969798999A9BF1
:1008D0009C9D9E9FA0A1A2A2A3A4A5A6A6A7A8A9ED
:1008E000AAAAABACADADAEAFB0B0B1B2B2B3B4B416
:1008F000B5B6B6B7B8B8B9BABABBBBBCBDBDBEBE5B
:10090000BFC0C0C1C1C2C2C3C4C4C5C5C6C6C7C7B3
:10091000C8C8C9C9CACBCBCCCCCDCDCECECFCFD019
:10092000D0D0D1D1D2D2D3D3D4D4D5D5D6D6D7D78F
:10093000D7D8D8D9D9DADADBDBDBDCDCDDDDDEDE0B
:10094000DEDFDFE0E0E0E1E1E2E2E2E3E3E4E4E491
:10095000E5E5E6E6E6E7E7E7E8E8E9E9E9EAEAEA1D
:10096000EBEBECECECEDEDEDEEEEEEEFEFF0F0F0AE
:10097000F1F1F1F2F2F2F3F3F3F4F4F4F5F5F5F644
:10098000F6F6F7F7F7F8F8F8F9F9F9FAFAFAFBFBDF
:10099000FBFCFCFCFCFDFDFDFEFEFEFFFF00112448
:1009A0001FBECFEFD8E0DEBFCDBF26E0A0E0B1E0B4
:1009B00001C01D92A53CB207E1F70E943F130C94C1
:1009C000613A0C940000439808953B9A0C94E30418
:1009D00090919005911106C0823011F4439A0895C8
:1009E0000C94E3040895CF93DF931F92CDB7DEB745
:1009F00090919105923049F089830E943C21898130
:100A00000F90DF91CF910C94E8040F90DF91CF917C
:100A10000895F999FECF92BD81BD81E08FBB80B56D
:100A20000895F894F999FECF92BD81BD81E08FBB06
:100A300040B54627842F992787FD9095262F30E0D3
:100A400082239323892B39F06F3F19F060BD84E036
:100A500006C084E104C0442321F060BD84E28FBB62
:100A6000F99A789408959F92AF92BF92CF92DF92B5
:100A7000EF92FF920F931F93CF93DF938C017A0134
:100A80006B01C40ED51EEB01912C5C01A61AB70AAE
:100A9000CE018A0D9B1DCC15DD0591F0911009C08A
:100AA000692D772767FD7095272F221F2227221F88
:100AB00001C021E06991922E960E0E941105E8CFA7
:100AC000692DC8018E0D9F1DDF91CF911F910F9150
:100AD000FF90EF90DF90CF90BF90AF909F900C94DD
:100AE00011059F92AF92BF92CF92DF92EF92FF9249
:100AF0000F931F93CF93DF938B017A016C01C40E88
:100B0000D51EEC01912C5B01A81AB90AC5018C0F06
:100B10009D1FCC15DD0591F00E940905911009C0BB
:100B2000292D332727FD3095232F221F2227221F0F
:100B300001C021E0922E980E8993E8CFC8018E0D56
:100B40009F1D0E94090521E030E0981611F020E079
:100B500030E0C901DF91CF911F910F91FF90EF908D
:100B6000DF90CF90BF90AF909F9008958FE3E8E122
:100B7000F5E0DF011D928A95E9F76BE375E080E00F
:100B80000E949728811103C087E00C944D2108959D
:100B900065E975E08FE295E00C94CE352F923F9297
:100BA0004F925F926F927F928F929F92AF92BF927D
:100BB000CF92DF92EF92FF920F931F93CF93DF9329
:100BC000CDB7DEB7AB970FB6F894DEBF0FBECDBF83
:100BD0009F8F8E8F89E3E7E5F5E0DF011D928A950F
:100BE000E9F78AE0E8E1F5E0A8E5B5E001900D92CB
:100BF0008A95E1F71D8E212C312CA12CB12C19A244
:100C0000512C18A266246394712C08E0402E99247C
:100C1000939485E0882E8D8DEE8DFF8DE80FF11D6C
:100C20000081002309F48BC29FEB900F9A3110F0E2
:100C30000C9443108F5F8D8FAE01475E5F4FBE01F6
:100C4000635E7F4F8E8D9F8D0E94B217882311F4B3
:100C50000C944510C98CDA8CEB8CFC8CC701B60166
:100C60000E94F4390E945C37162F70E080E090E01B
:100C70000E948A379B01AC01C701B6010E940E3663
:100C800020E030E048EC52E40E9426390E94893985
:100C90000E945C37073421F00D3409F450C192C131
:100CA000183209F432C1E8F4143160F4113108F05B
:100CB000D7C0143009F45AC008F48EC01A30D9F1E4
:100CC0000C9451101C31B9F128F4163108F4F7C016
:100CD0000C9451101E3179F1163209F47DC00C9438
:100CE00051101D3309F40BC1A8F4153309F461C088
:100CF00040F41B3209F4ECC0113309F4E9C00C9440
:100D000051101C3310F00C945110165310935E05C3
:100D100089E000C11C3540F41A3508F0B0C0103528
:100D200009F49BC00C9451101C3529F01F3508F4B0
:100D3000BDC00C9451106115710531F4B8A1B11109
:100D40000C944710E1E0E8A31C3199F038F414301A
:100D500069F01A3009F0DBC082E02CC0153349F18C
:100D60001C3559F11E3109F0D2C013C090925705BD
:100D7000CEC06115710549F06A30710511F00C940F
:100D8000511024E02093570509C0F3E0F093570574
:100D900005C06115710521F48092570580E0BFC040
:100DA0006A30710511F00C94511036E030935705FC
:100DB000F5CF87E080935705AAC06115710549F00A
:100DC0006A30710511F00C94511099E09093570519
:100DD000E5CF40925705E2CFA8A1A1110C9447108E
:100DE000B2E0B8A3123089F028F4112359F0113081
:100DF00081F08FC0163281F0103579F1133009F08F
:100E000088C007C01092580584C0E8A1E093580537
:100E100080C0109358057DC06E317105B1F048F463
:100E20006431710511F00C945110F4E0F093580501
:100E300012C06832710561F06233710511F00C94D3
:100E4000511037E03093580506C08092580503C012
:100E500026E02093580581E062C04092580559C0B1
:100E6000123129F0133139F010925C0502C09092D2
:100E70005C0582E04FC082E080935C054BC0611549
:100E8000710549F41A3519F410925B0502C090926D
:100E90005B0583E044C06A30710511F00C94511079
:100EA0001A3511F40C94511084E039C01D3519F431
:100EB0009092590502C01092590585E02BC014315B
:100EC00019F490925A0502C010925A0586E022C089
:100ED00088A181110C944710113331F410925D05F3
:100EE00088E093E098A31BC06A30710511F00C9460
:100EF000511090925D0588E0A3E0A8A310C0672B75
:100F000011F00C9451108AE00AC087E003C080E021
:100F100001C081E0672B19F087E10C946410F301A4
:100F200002C0EE0FFF1F8A95E2F7CF019F012A2131
:100F30003B21232B09F443C085E10C946410672BFB
:100F400059F7163018F4133058F017C0183010F451
:100F50000C9451101A3000F11E3159F00C945110BC
:100F6000123039F01E3129F0111120C090925F0526
:100F70001DC082E080935F0519C0143029F0153040
:100F800039F09092610506C082E08093610502C04D
:100F9000109261058CE00BC0193021F082E0809343
:100FA000600502C0109260058DE001C08BE09301E6
:100FB00002C0220F331F8A95E2F7C901B8CFA82AD1
:100FC000B92A29CE802F992787FD9095A92FB92F6F
:100FD000FC01E654F109E531F10510F00C945110D3
:100FE000EC5CFF4F0C94413AC0926205D0926305CD
:100FF000E0926405F092650580E07FC0C0926605CE
:10100000D0926705E0926805F092690539A13160D8
:1010100039A381E072C0C0926A05D0926B05E0925C
:101020006C05F0926D0589A1826089A382E065C09C
:10103000C0926E05D0926F05E0927005F092710536
:1010400099A1946099A383E058C01093720584E03D
:1010500054C0C701B6010E9457376093730570935F
:101060007405809375059093760585E046C0C0921F
:101070007705D0927805E0927905F0927A0586E0BE
:101080003CC0C0927B05D0927C05E0927D05F09239
:101090007E0587E032C0C0927F05D0928005E09245
:1010A0008105F092820588E028C0C0928405D09224
:1010B0008505E0928605F0928705A52DA1605A2E40
:1010C0008AE01BC0C0928805D0928905E0928A050B
:1010D000F0928B05B52DB2605B2E8BE00EC0C092F6
:1010E0008C05D0928D05E0928E05F0928F05E52D4E
:1010F000E4605E2E8CE001C089E08301082E02C00E
:10110000000F111F0A94E2F7980122213321232BAB
:1011100009F0BFC721E633E002C0359527958A95CF
:10112000E2F720FF09C020E030E0A901C701B601C5
:101130000E94E83687FDAFC7202A312A6CCD5520A2
:1011400029F038A1311102C082E088A325FE0EC02B
:101150008091730590917405A0917505B091760505
:1011600080389649A849B1050CF097C78091590578
:10117000813031F4F8A1F230A1F520FE98C731C0DA
:101180008091190581112DC020FE1BC080915A0548
:10119000813039F523E333E34BEC51E46091620590
:1011A0007091630580916405909165050E942639D0
:1011B0006093620570936305809364059093650561
:1011C00010C08091260590912705A0912805B09127
:1011D00029058093620590936305A0936405B093FD
:1011E000650530FC10C08091220590912305A091E7
:1011F0002405B091250580937F0590938005A093E9
:101200008105B093820580915705813031F426FC29
:1012100002C08CE159C7E89426F880915C058823C8
:1012200041F0813061F019A682E088A791E09FA388
:101230000BC022E029A731E038A71FA205C0A1E01A
:10124000A9A718A6B2E0BFA380915A05813021F06A
:10125000E8A1E33091F52AC0B4E8EB2EB5E0FB2E0F
:1012600000E010E0C52CD12CC601002E02C09595DF
:1012700087950A94E2F780FF10C023E333E34BEC39
:1012800051E4D7016D917D918D919C910E942639F9
:10129000F70160837183828393830F5F1F4FF4E0B4
:1012A000EF0EF11C03301105F9F6D2CF80915D05E8
:1012B000813019F424E05212F2C68CE0EBE3F5E041
:1012C000DE011D9601900D928A95E1F7B1FC09C0EF
:1012D000309157053E8F3230B9F0383009F4B0C044
:1012E00015C180915E05873010F08DE1EDC69091BB
:1012F0001E05981769F3BE01635F7F4F0E94972810
:10130000882309F4DEC6E4CF511002C08AE1DCC6AE
:10131000C10180759927892B09F47BCF60917705EE
:10132000709178058091790590917A050E94F43941
:101330000E945C376730C8F680917205843129F0CD
:10134000823009F0AEC627FCACC68FEA282266239D
:1013500019F061506E8F03C090915E059E8FBE01A3
:101360006F5F7F4F8E8D0E949728882309F4A9C64E
:10137000409072056090530570905405809055051B
:1013800090905605DE0111967D01F4E8AF2EF5E050
:10139000BF2EAFE2CA2EA5E0DA2E00E010E0E52D68
:1013A000F0E0FEA3EDA38DA19EA1002E02C09595B5
:1013B00087950A94E2F780FF33C0F4E14F1226C00C
:1013C000D60158962D913D914D915C915B976D9111
:1013D0007D918D919C910E940E36F5012081318185
:1013E000428153810E940E36D7016D937D938D9378
:1013F0009C9313970230A1F4A40193010E940E362E
:10140000F70160837183828393830AC0F501808131
:101410009181A281B381F70180839183A283B383F9
:101420000F5F1F4FF4E0EF0EF11C24E0A20EB11C81
:1014300034E0C30ED11C0330110509F0B4CF33C121
:10144000552009F463CF6090530570905405809047
:1014500055059090560504E815E0EFE2CE2EE5E044
:10146000DE2E5E018DE0A80EB11CE12CF12CA52D25
:10147000B0E0BF8FAE8F8E8D9F8D0E2C02C09595E4
:1014800087950A94E2F780FF26C0F501208131811B
:1014900042815381D6016D917D918D919C910E94E5
:1014A0000E36F80120813181428153810E940E362F
:1014B000D8016D937D938D939C931397B2E0EB12BB
:1014C00014C0A40193010E940E36F8016083718359
:1014D000828393830AC0F601808D918DA28DB38D96
:1014E000F80180839183A283B383FFEFEF1AFF0A91
:1014F0000C5F1F4F24E0C20ED11C34E0A30EB11CC0
:1015000083E0E816F10409F0B6CFCCC098A193307F
:1015100079F4AE8DA53009F48BC0A73009F4BDC0B5
:10152000A33009F0BFC0BE016F5F7F4F86E084C06B
:10153000552079F340905B056090530570905405F9
:1015400080905505909056057FE2C72E75E0D72E06
:1015500004E815E05E01BDE0AB0EB11CE12CF12CFE
:10156000E52DF0E0FEA3EDA38DA19EA10E2C02C0FF
:10157000959587950A94E2F780FD0BC0F60180816E
:101580009181A281B381F80180839183A283B38387
:101590003EC0FE8DF730D9F1411028C0D6015896D3
:1015A0002D913D914D915C915B97F5016081718129
:1015B000828193810E940F36D8012D913D914D91EA
:1015C0005C910E940F36F80160837183828393835C
:1015D000F2E0EF121CC0A40193010E940F36D80163
:1015E0006D937D938D939C93139711C0F601208189
:1015F000318142815381D8016D917D918D919C9172
:101600000E940F36F8016083718382839383FFEF1A
:10161000EF1AFF0A24E0C20ED11C0C5F1F4F34E00A
:10162000A30EB11C83E0E816F10409F09DCF71CF41
:10163000BE016F5F7F4F87E00E949728882309F4DF
:1016400040C5511003C01E8E18A22DC020E030E00E
:1016500080E090E0452D50E0BA01082E02C075955B
:1016600067950A94E2F760FD11C0F901E85EFA4F50
:10167000C788D08CE18CF28CE1E0F0E0EC0FFD1F2C
:10168000E20FF31FC082D182E282F38201962C5FC7
:101690003F4F8330910501F705C080915805823096
:1016A00008F001C51E8E10915805183041F45520E0
:1016B00009F4B3C198A1913009F0F7C48BC2A8A175
:1016C000A23009F0AAC11123D9F020E030E0A9012D
:1016D0006091620570916305809164059091650544
:1016E0000E94E836882309F4E2C4143028F412304A
:1016F00058F4113029F06EC2183008F44DC16AC296
:10170000511068C218A28CC1552009F4FFCDFFA169
:10171000EF2FF0E0FEA3EDA338A5232F30E03BA789
:101720002AA781E090E03C0108A402C0660C771C67
:101730000A94E2F70FA002C0880F991F0A94E2F7FB
:10174000682A792A852D90E086219721892B09F432
:10175000B0C4CF01880F991F880F991FFC01E95A67
:10176000FA4FDC01A85EBA4F57962D913D914D91ED
:101770005C915A9765A576A587A590A90E940E361B
:101780006B017C018AA59BA5880F991F880F991F63
:10179000FC01E95AFA4FDC01A85EBA4F57962D9129
:1017A0003D914D915C915A9765A576A587A590A925
:1017B0000E940E364B015C0127FE40C0E89427F8DA
:1017C00020918405309185054091860550918705CB
:1017D00060912F057091300580913105909132050F
:1017E0000E94E836811120C1209188053091890539
:1017F00040918A0550918B056091330570913405B5
:1018000080913505909136050E94E83681110CC112
:1018100020918C0530918D0540918E0550918F055A
:1018200060913705709138058091390590913A059E
:101830000E94E8368111F8C081E246C4F9A14F2E1A
:10184000512C64207520672809F435C421EF222229
:1018500080915A05813009F45AC00AA51BA5000FD2
:10186000111F000F111F055A1A4FD8011B962D91F9
:101870003D914D915C911E97C501B4010E940E36B9
:101880002B013C01ADA0BEA0AA0CBB1CAA0CBB1C2A
:10189000F501E55AFA4F5F01238534854585568564
:1018A000C701B6010E940E36A30192010E94A01842
:1018B0006B017C01D8011B962D913D914D915C915E
:1018C0001E97F50163857485858596850E94A0180D
:1018D0004B015C0160937B0570937C0580937D05D3
:1018E00090937E059B01AC01C701B6010E940E36A4
:1018F0006B017C01E894F7F82AE037ED43EA5BE3FB
:10190000C701B6010E94EB3818164CF163C186E698
:10191000682E85E0782E00E010E0C201002E02C0A3
:10192000959587950A94E2F780FF10C023E333E38F
:101930004BEC51E4D3016D917D918D919C910E946E
:101940002639F30160837183828393830F5F1F4F76
:10195000F4E06F0E711C03301105F9F67ECF20E024
:1019600030E040E05FE3C701B6010E94EB38181693
:101970000CF462CF2FE632E143E85AE3C501B4012B
:101980000E9426399B01AC01C701B6010E94EB38C9
:1019900018160CF451CF1EC1552009F4B7CC209174
:1019A00084053091850540918605509187056091A9
:1019B0002F057091300580913105909132050E947C
:1019C000E836811107C12091880530918905409141
:1019D0008A0550918B056091330570913405809193
:1019E0003505909136050E94E8368111F3C02091AB
:1019F0008C0530918D0540918E0550918F05609139
:101A00003705709138058091390590913A050E940B
:101A1000E836882309F410CFDDC028A12111DAC0EF
:101A2000C1018E7D9C7FD9C080915A058130B1F46F
:101A300023E333E34BEC51E460917B0570917C052B
:101A400080917D0590917E050E94263960937B05EB
:101A500070937C0580937D0590937E0540907B0577
:101A600050907C0560907D0570907E0520E030E010
:101A700040E850E4C301B2010E942639A30192015B
:101A80000E9426392B013C01A7019601C701B6012E
:101A90000E9426399B01AC01C301B2010E940E369F
:101AA0002B013C01A5019401C501B4010E94263916
:101AB0009B01AC01C301B2010E940E362B013C0117
:101AC00020E030E0A9010E94E83687FDFCC2C30196
:101AD000B2010E94B3392B013C01A5019401C70159
:101AE000B6010E94A0189B01AC01C301B20190583D
:101AF0000E94EF362B013C0180915805833021F480
:101B000077FA709477F8709480917B0590917C05BA
:101B1000A0917D05B0917E0589A39AA3ABA3BCA338
:101B200020E030E0A901BC01CD010E94E83687FF2A
:101B300011C077FA709477F8709489A19AA1ABA13B
:101B4000BCA1B05880937B0590937C05A0937D0544
:101B5000B0937E050DA11EA1000F111F000F111FD4
:101B6000055A1A4FA3019201C501B4010E942639FA
:101B70009B01AC01C701B6010E940E3620E030E0A7
:101B800040E05FE30E942639D8011B966D937D9358
:101B90008D939C931E970AA51BA5000F111F000F84
:101BA000111F055A1A4FA3019201C701B6010E94E5
:101BB00026399B01AC01C501B4010E940F3620E01B
:101BC00030E040E05FE30E942639F80163877487C4
:101BD00085879687C1018E7D907E892B09F06DC225
:101BE0008091730590917405A0917505B09176056B
:101BF00080932B0590932C05A0932D05B0932E0573
:101C00008091590580931905809162059091630533
:101C1000A0916405B09165058093260590932705F2
:101C2000A0932805B0932905C0907F05D09080052A
:101C3000E0908105F0908205A70196016091220550
:101C40007091230580912405909125050E94E83626
:101C50008823C1F080912105882321F0B701A601D6
:101C60000E94CF2A80917F0590918005A0918105E7
:101C7000B09182058093220590932305A0932405BB
:101C8000B09325058091830580932A058091610595
:101C900090912105981771F04091220550912305EC
:101CA00060912405709125050E94CF2A80916105DD
:101CB000809321058091600590912005981731F05F
:101CC0000E94F30480916005809320058091570560
:101CD000813051F460917705709178058091790594
:101CE00090917A050E94BB1680915C0580931C053B
:101CF00080915A0580931A0538A13330F9F4809108
:101D00005D0580931D05813089F480918C0590914B
:101D10008D05A0918E05B0918F058093530590930A
:101D20005405A0935505B093560508C0109253056D
:101D300010925405109255051092560580915E053B
:101D400090911E05981759F080931E058CE0FE01B6
:101D50003D96ABE3B5E001900D928A95E1F7809155
:101D60005B0580931B058091570590E0FC0132973D
:101D7000E830F10508F05BC0E75BFF4F0C94413A97
:101D8000BE016F5F7F4F8E8D0E94292780911E05B7
:101D90009E8D89134CC08CE0FE013196ABE3B5E01B
:101DA0002AC0A8A1AA2389F0E0902B05F0902C0569
:101DB00000912D0510912E0520E040E050E060E8F4
:101DC0007FEB84E895E00E947A13E0902B05F09079
:101DD0002C0500912D0510912E0520E040E050E0EB
:101DE00060E87FEBCE0101960E947A138CE0FE0141
:101DF0003196AFE2B5E001900D928A95E1F717C0F8
:101E00006FE275E086E003C06FE275E087E00E9454
:101E100029270DC08CE0E4E8F5E0A7E4B5E0EBCFBE
:101E20008CE0E7E4F5E0DF011D928A95E9F7809107
:101E3000580580931805883009F4E2C0B8A1B23083
:101E400009F0DEC090E08830910508F0D0C0FC01B8
:101E5000EF5AFF4F0C94413AE0902B05F0902C057F
:101E600000912D0510912E0520E040E050E060E843
:101E70007FEB12C0E0902B05F0902C0500912D0512
:101E800010912E0540912605509127056091280557
:101E9000709129052091190584E895E00E947A1334
:101EA000A6C0C0902605D0902705E0902805F090A8
:101EB000290500917B0510917C0520917D053091CD
:101EC0007E0580912E058F9380912D058F938091B3
:101ED0002C058F9380912B058F9381E08F93E9A53B
:101EE000EF93F8A5FF9321C0C0902605D090270559
:101EF000E0902805F090290500917B0510917C0564
:101F000020917D0530917E0580912E058F938091E3
:101F10002D058F9380912C058F9380912B058F93A6
:101F20001F9289A58F9398A59F938FA0A0901905C4
:101F300046E655E064E875E08FE295E00E94CE1336
:101F40000FB6F894DEBF0FBECDBF51C0A0902B05D9
:101F5000B0902C05C0902D05D0902E0540912605FF
:101F6000509127056091280570912905E12C12C038
:101F7000A0902B05B0902C05C0902D05D0902E057B
:101F800040912605509127056091280570912905FB
:101F9000EE24E39400E025C0A0902B05B0902C0522
:101FA000C0902D05D0902E05409126055091270513
:101FB0006091280570912905E12C12C0A0902B0595
:101FC000B0902C05C0902D05D0902E05409126058F
:101FD000509127056091280570912905EE24E3941E
:101FE00001E02091190584E895E00E94F2168CE04A
:101FF000E4E8F5E0AFE2B5E001900D928A95E1F7F3
:1020000080915F0580931F05882309F458C00E94C2
:102010003C2190911F0580919105913041F48230CF
:1020200079F188E00E94E8350E94552029C091E0AE
:102030009093180510921C0510921B05109219051B
:1020400010921E0510922105109220058230A9F0F1
:10205000BE01635F7F4F80E00E949728882389F14B
:102060008CE0FE013D96ABE3B5E001900D928A95C0
:10207000E1F70E940F2A0E94E30487E00E94C82132
:1020800010921F051CC081E01FC082E01DC088E1C6
:102090001BC089E119C084E017C08BE115C085E23F
:1020A00013C084E111C08EE10FC08FE10DC086E145
:1020B0000BC080E209C083E207C084E205C080E073
:1020C00003C087E001C082E2AB960FB6F894DEBF92
:1020D0000FBECDBFDF91CF911F910F91FF90EF9079
:1020E000DF90CF90BF90AF909F908F907F906F9038
:1020F0005F904F903F902F900895EBE6F0E0808145
:10210000897E8083E8E6F0E080818E7F8083089579
:1021100084B1897E84B985B1866185B98091B5061F
:1021200083FF0BC080916B00866180936B00809170
:10213000680081608093680008950C947D10CF92B0
:10214000DF92FF920F931F93CF93DF931F92CDB730
:10215000DEB793B196718091B50686FD02C086E127
:1021600098279923D9F0C12CD12CF12C01E010E053
:102170008C2D99830E94052A9981892339F0980131
:102180000C2C01C0220F0A94EAF7F22A8FEFC81A2A
:10219000D80AE3E0CE16D10459F701C0F12C8F2DF7
:1021A0000F90DF91CF911F910F91FF90DF90CF9013
:1021B00008951F920F920FB60F9211242F933F9301
:1021C0004F935F936F937F938F939F93AF93BF933F
:1021D000EF93FF9380919105813049F08091000148
:1021E000811105C00E94941783E00E94FB35FF9186
:1021F000EF91BF91AF919F918F917F916F915F917F
:102200004F913F912F910F900FBE0F901F901895F7
:102210002F923F924F925F926F927F928F929F92F6
:10222000AF92BF92CF92DF92EF92FF920F931F93E4
:10223000CF93DF93CDB7DEB767970FB6F894DEBFC5
:102240000FBECDBF482E809190058111A1C124E918
:10225000A22E26E0B22E9E01235F3F4F190100E01F
:1022600010E0C12CD12C7601642C712C802F0E949F
:10227000F129D1018D931D01C301002E02C0959556
:1022800087950A94E2F780FF1AC020E030E040EC26
:102290005FEBF50160817181828193810E94263913
:1022A000688B572E4C01262F372FAC01C701B60182
:1022B0000E94EB3818161CF0C888D52C74010F5FEB
:1022C0001F4FF4E0AF0EB11C0330110579F680907A
:1022D000BB069090BC06A090BD06B090BE0626E05E
:1022E000288B5524539465E975E0CE0101960E9430
:1022F000CE352090B606312CFE01319685E995E069
:102300009F8B8E8B80E090E000E010E0B701A6018B
:1023100070589301082E02C0359527950A94E2F76C
:1023200020FF28C00F5FAE89BF891D921D921D92AC
:102330001C9213979101082E02C0359527950A9497
:10234000E2F720FF03C0552019F007C0552029F0FF
:10235000C082D182E282F38204C0408351836283CF
:1023600073832DE030E02C0F3D1F280F391FD9015A
:102370002C91122B019634962E893F892C5F3F4F6A
:102380003F8B2E8B8330910521F6602F70E080E02B
:1023900090E00E9488370E94B3399B01AC01C501CF
:1023A000B4010E942639AB01BC011093AE054A8BE3
:1023B0005B8B6C8B7D8B0E943B1DCC24CA94DC2CE8
:1023C000760100E020E04A895B896C897D89CE0135
:1023D00001960E94381A0E94162E0E94F72A552054
:1023E000E9F00E949F10FE013D9620E030E090E071
:1023F0006191462F412359F0AC01022E02C0559540
:1024000047950A94E2F740FF02C0609516232F5FBC
:102410003F4F2330310561F71093AE050E94162E11
:1024200080910101847399F080910101807329F0FA
:102430000E9494170E945520ABC05110A4C00E9466
:102440009F108421A9F784E00E94F13504C0812FF8
:102450008C7109F0C4CF0E94A42D0E94E1198091D3
:10246000BF069091C0060E94951831E05326C9F02E
:1024700020E030E040EA50E46091C1067091C2066D
:102480008091C3069091C4060E9426396B017C019D
:102490008090B7069090B806A090B906B090BA06A2
:1024A00010C0C090C106D090C206E090C306F09064
:1024B000C4068090BB069090BC06A090BD06B0906C
:1024C000BE0688898150888B81110DCF8091B60618
:1024D000A82FB0E0B98BA88BC090C106D090C206DF
:1024E000E090C306F090C4061601270157FA5094F5
:1024F00057F8509400E716E085E9882E85E0982E7D
:10250000A12CB12CC3010A2C02C0959587950A9481
:10251000E2F780FF29C0888999890A2C02C0959525
:1025200087950A94E2F7F80180FF0EC024A135A137
:1025300046A157A1C701B6010E940F36D8012D91BF
:102540003D914D915C9106C0208131814281538142
:10255000C201B1010E9426390E94F638D4016D9360
:102560007D938D939C931397BFEFAB1ABB0AE4E066
:102570008E0E911C0C5F1F4FF3E0AF16B10411F6E5
:102580000E943B1D05C08091010182FF5CCF50CFAE
:1025900067960FB6F894DEBF0FBECDBFDF91CF9127
:1025A0001F910F91FF90EF90DF90CF90BF90AF9071
:1025B0009F908F907F906F905F904F903F902F9063
:1025C0000895BF92CF92DF92EF92FF920F931F93E5
:1025D000CF93DF938C01C4E9D6E0BB24B394F80118
:1025E000C190D190E190F1908F0120E030E0A901FD
:1025F000C701B6010E94EB3818164CF028813981CA
:102600004A815B81C701B6010E94E83687FDB0921E
:10261000930580919305882311F18091910588306D
:1026200081F00E94941785E00E94FB35DF91CF91E5
:102630001F910F91FF90EF90DF90CF90BF900C947F
:10264000552088E00E94E8350E9455208091900531
:1026500081110BC0809191058111F6CFE2CF2496B4
:10266000F6E0C03ADF0709F0BACFDF91CF911F91B2
:102670000F91FF90EF90DF90CF90BF9008950E9450
:1026800057260E94E4290E94D02D0E94C3338FE177
:10269000E0E9F5E0DF011D928A95E9F781E080939A
:1026A000900578948091B50684FF03C081E0809303
:1026B00091050E9414270E94B6050E94152A0E94C7
:1026C000E5040E9488100E943F1F0E94E1190E94A9
:1026D000A42D0E943B1D0E94C805109290051092E7
:1026E00001011092000110929205109293050E9430
:1026F000BE20DFCF8F929F92BF92CF92DF92EF9258
:10270000FF920F931F93CF93DF9300D000D0CDB7EC
:10271000DEB74C01B22E670178018091B50685FFC6
:102720000BC0C40149835A836B837C830E94E112EE
:102730007C816B815A814981809191058230F1F0D1
:1027400049835A836B837C830E9455208091900536
:10275000811114C00E94301A49815A816B817C8199
:10276000882339F00E94631F49815A816B817C81E3
:10277000E7CF00E02B2DC4010E94381A0F900F9074
:102780000F900F90DF91CF911F910F91FF90EF90DD
:10279000DF90CF90BF909F908F9008952F923F929F
:1027A0004F925F926F927F928F929F92AF92BF9261
:1027B000CF92DF92EF92FF920F931F93CF93DF930D
:1027C000CDB7DEB7E7970FB6F894DEBF0FBECDBF2B
:1027D0009A8B898B1B013A0109871A872B873C87C3
:1027E000CB8ADC8AED8AFE8AA98E24E0829E2001B3
:1027F0001124840D951D9B8F8A8FCA01840D951D10
:102800009D8F8C8FDC018D909D90AD90BC90EA8D5A
:10281000FB8D2081318142815381C501B4010E9429
:102820000F366E8F7F8F88A399A32D960FAD2D97AE
:10283000F4E00F9F8001112429893A89200F311F6C
:102840003BA32AA3C301800F911F9DA38CA3DC018E
:10285000CD90DD90ED90FC90F90120813181428195
:102860005381C701B6010E940F366EA37FA388A7CC
:1028700099A7D501C401B0588D839E83AF83B887D3
:10288000D701C601B05889839A83AB83BC83F10119
:10289000E40DF51D2E8D3F8D48A159A160817181F8
:1028A000828193810E940E366B017C01F101E00F61
:1028B000F11F2EA13FA148A559A560817181828198
:1028C00093810E940E364B015C01A70196016D8138
:1028D0007E818F8198850E9426392B013C01A501BC
:1028E000940169817A818B819C810E9426399B01A8
:1028F000AC01C301B2010E940F362B013C01A501BE
:1029000094016D817E818F8198850E9426394B01CB
:102910005C01A701960169817A818B819C810E946B
:1029200026399B01AC01C501B4010E940E36A301FA
:1029300092010E9482366B017C012F968FAD2F97FA
:10294000882399F02DEB37E346E055EBC701B6013C
:102950000E94EB3887FD1DC02BED3FE049EC50E4B1
:10296000C701B6010E940E3612C02DEB37E346E0D8
:1029700055E3C701B6010E94E836181654F02BED56
:102980003FE049EC50E4C701B6010E940F366B01ED
:102990007C018090A9069090AA06A090AB06B0900A
:1029A000AC0629853A854B855C85CA01B9010E9430
:1029B0000F36A50194010E940E369B01AC01C501A2
:1029C000B4010E9426390E94B3394B015C0120E01A
:1029D00030E040E05FE3C701B6010E942639298557
:1029E0003A854B855C850E9426399F77A501940125
:1029F0000E94EF360E94C5370E945C377BA76AA70A
:102A0000DB01AB2B09F490C14B01A12CB12CB98D8A
:102A1000BB2381F0C501B4010E9488379B01AC0142
:102A20006B897C898D899E890E9426396B8B7C8B72
:102A30008D8B9E8BC501B4010E9488374B015C01D0
:102A40009B01AC01C701B6010E94EF362B013C018E
:102A50002E968FAD2E97E4E08E9FC0011124298918
:102A60003A89280F391F388F2F8BF101E80FF91F92
:102A7000D9012D913D914D915C916081718182814F
:102A800093810E940E36A50194010E94EF366CAB33
:102A90007DAB8EAB9FABA3019201C301B2010E943B
:102AA00026399B01AC0160E070E080E090E40E9478
:102AB0000E366B017C012BEA3AEA4AE25EE3C3017F
:102AC000B2010E9426394B015C0120E030E040E871
:102AD00050E4C701B6010E940F369B01AC01C5014D
:102AE000B4010E9426396CA77DA78EA79FA720E07E
:102AF00030E040E05FE3C701B6010E94263968ABD1
:102B000079AB8AAB9BAB1D86E1E0F0E0FA87E98701
:102B100029853A858AA59BA52817390709F404C198
:102B2000FD85FC3008F04AC028A939A94AA95BA94B
:102B300069817A818B819C810E9426396B017C019D
:102B40002CA53DA54EA55FA56D817E818F819885C1
:102B50000E942639A70196010E940F36B62EA72E95
:102B6000982E892E28A939A94AA95BA96D817E8151
:102B70008F8198850E9426396B017C012CA53DA58B
:102B80004EA55FA569817A818B819C810E9426393F
:102B90009B01AC01C701B6010E940E366D837E8396
:102BA0008F8398872D852F5F2D878B2D9A2DA92DAB
:102BB000B82D89839A83AB83BC836BC0A985BA8502
:102BC000BD0180E090E00E948837A30192010E943D
:102BD00026396B017C010E94EC3669837A838B83F2
:102BE0009C83C701B6010E94A9394B015C01EC8DA1
:102BF000FD8DC080D180E280F380F7FAF094F7F881
:102C0000F094ACA1BDA18D919D910D90BC91A02D92
:102C10008D879E87AF87B88B29813A814B815C81F4
:102C2000C701B6010E9426396D837E838F83988702
:102C3000A50194016D857E858F8598890E9426392E
:102C40009B01AC016D817E818F8198850E940F363A
:102C50006D837E838F839887A5019401C701B60198
:102C60000E9426396B017C0129813A814B815C816C
:102C70006D857E858F8598890E9426399B01AC01E0
:102C8000C701B6010E940E3669837A838B839C83C9
:102C90001D862D813E814F8158856E8D7F8D88A147
:102CA00099A10E940F36EA8DFB8D60837183828328
:102CB000938329813A814B815C816EA17FA188A594
:102CC00099A50E940F36AAA1BBA16D937D938D9308
:102CD0009C9313972CA93DA94EA95FA9EF89F88D64
:102CE00060817181828193810E940F36AF89B88D96
:102CF0006D937D938D939C9313976396ECACFDAC91
:102D00000EAD1FAD6397298D4B895C896D897E89D6
:102D100089899A890E947A1380919005811112C045
:102D2000E985FA853196F2CE6396ECACFDAC0EAD3A
:102D30001FAD6397298D4B895C896D897E89C1019F
:102D40000E947A13E7960FB6F894DEBF0FBECDBF90
:102D5000DF91CF911F910F91FF90EF90DF90CF9077
:102D6000BF90AF909F908F907F906F905F904F90AB
:102D70003F902F900895CF93DF9300D000D0CDB730
:102D8000DEB720919105223099F069837A838B8395
:102D90009C830E943C2140E069817A818B819C81E7
:102DA0000F900F900F900F90DF91CF910C946418BB
:102DB0000F900F900F900F90DF91CF9108950E9488
:102DC0007D1084E00E94081183E00E9408110E9497
:102DD000552080919005811104C00E94C8050C9473
:102DE000881008956F927F929F92AF92BF92CF9278
:102DF000DF92EF92FF920F931F93CF93DF9300D058
:102E000000D01F92CDB7DEB73C019E2C809191057A
:102E1000823009F476C02D8349835A836B837C8387
:102E20000E943C211092AD05802F0E942D1F0E9410
:102E3000441F2D8149815A816B817C81882351F007
:102E400080E10E94FB350E9455207C816B815A8174
:102E500049812D8180919005811153C086017501B2
:102E6000C3010E947A1381E08093020182E00E94F4
:102E7000E8350E94552080919005811142C08091D3
:102E800091058111F6CF80910201813081F4992062
:102E900051F08CE0E5E9F5E0A1EAB5E001900D9292
:102EA0008A95E1F707C080E10E94FB3503C081E00D
:102EB0008093AD05109202010E94552080919005EB
:102EC00081111FC00E94A42D0E94E1190E943B1D88
:102ED00065E975E0C3010E94CE350F900F900F9009
:102EE0000F900F90DF91CF911F910F91FF90EF9076
:102EF000DF90CF90BF90AF909F907F906F900C9499
:102F00007C230F900F900F900F900F90DF91CF9137
:102F10001F910F91FF90EF90DF90CF90BF90AF90F7
:102F20009F907F906F9008958091010184FD19C05A
:102F300080E10E94E8350E940F2A0E94E3049091EC
:102F40009105892F8C7021F4809194058C7049F043
:102F5000943011F480E201C088E00E94FB350C94AB
:102F6000132B08956F927F928F929F92AF92BF9290
:102F7000CF92DF92EF92FF920F931F93CF93DF9345
:102F80007C018B016A01FB018081F701E80FF11DD3
:102F90002081EF012D3229F4229621816624639449
:102FA00007C02B3211F0219602C022962181612C9C
:102FB000A12CB12C712C60E070E0CB01FE0130ED52
:102FC000932E920E29E02915C8F0B39428E02B1512
:102FD00088F0A1107A94A5E0B0E09B01AC010E94BA
:102FE000473A660F771F881F991F690D711D811D54
:102FF000911D0BC0A11009C0739407C02EEF92124F
:1030000007C0A11005C0AA24A39421962081D6CF81
:10301000BB2009F449C00E9488374B015C0120E0C5
:1030200030E0A9010E94E836882361F18FEF78161D
:103030006CF42AE037ED43E25CE3C501B4010E9481
:1030400026394B015C0173947394F0CF78120BC056
:103050002DEC3CEC4CEC5DE3C501B4010E9426393B
:103060004B015C010FC0772069F020E030E040E2C6
:1030700051E4C501B4010E9426394B015C017A94E8
:1030800017149CF3662021F0B7FAB094B7F8B09407
:10309000F60180829182A282B382CE19DF09C150EB
:1030A000F801C08381E001C080E0DF91CF911F91E2
:1030B0000F91FF90EF90DF90CF90BF90AF909F90D7
:1030C0008F907F906F9008950F931F93CF93C42F8D
:1030D00020E030E040EA51E40E9426390E94D536D3
:1030E0000E945C378B0101151105D9F08091900584
:1030F000811117C0C11103C00E94552006C00E9453
:10310000661F8091920581FD0CC02FEF80E792E051
:10311000215080409040E1F700C0000001501109AB
:10312000E2CFCF911F910F910895009741F0EFE901
:10313000FFE03197F1F700C000000197F6CF089546
:103140008F929F92AF92BF92CF92DF92EF92FF92B7
:1031500069017A019B01AC010E9426394B015C0197
:10316000A7019601C701B6010E9426399B01AC0157
:10317000C501B4010E940F36FF90EF90DF90CF9011
:10318000BF90AF909F908F900C94B3394F925F9205
:103190006F927F928F929F92AF92BF92CF92DF9267
:1031A000EF92FF920F931F93CF93DF931091210122
:1031B000111101C010E1115000911F01101709F405
:1031C000EFC08DE2189FE0011124CD5DDE4F8D88A8
:1031D0009E88AF88B88C69A17AA18BA19CA19B0124
:1031E000AC010E940F362DA13EA14FA158A50E940F
:1031F00026396B017C019B01AC01B401C5010E9421
:10320000E83687FF02C064017501A601B701498B4A
:103210005A8B6B8B7C8B111101C010E177247A944F
:10322000710E701619F02DE2622E27C080912201D6
:10323000081351C00E94F22D4EC0679C80011124DA
:103240000D5D1E4F711002C090E1792E7A9480912D
:103250002201781202C00E94F22DF801C588D6889A
:10326000E788F08CA7019601618972898389948926
:103270000E94E836811106C0E80180911F01781292
:10328000DCCF29C0F80161A172A183A194A19B01A7
:10329000AC010E940F36F80125A136A147A150A527
:1032A0000E94263929893A894B895C890E940F3608
:1032B0004B015C01A70196010E94E836F80187FFE7
:1032C00005C0818A928AA38AB48AD6CFC18AD28A5B
:1032D000E38AF48AD1CF60901F01FDE26F9E8001E6
:1032E00011240D5D1E4F77247394760C80E17812C3
:1032F00001C0712C509021018DE2482E751409F403
:103300004DC0479CE0011124CD5DDE4FF80181885E
:103310009288A388B488C988DA88EB88FC88A701DA
:103320009601C501B4010E94E83687FF23C0F80169
:1033300061A172A183A194A19B01AC010E940F36EF
:10334000F80125A136A147A150A50E9426399B016D
:10335000AC01C501B4010E940F364B015C01A7010D
:1033600096010E94E83687FF05C0898A9A8AAB8A4F
:10337000BC8A672C2D893E894F89588D69897A8945
:103380008B899C890E94E836811101C0672C739457
:10339000F0E17F1201C0712C8E01B0CF60921F014D
:1033A000DF91CF911F910F91FF90EF90DF90CF9021
:1033B000BF90AF909F908F907F906F905F904F9055
:1033C00008958CE1E3E0F1E0DF011D928A95E9F7D1
:1033D000109222011092210181E08093200110922D
:1033E0001F0108959091220180912101891769F0B0
:1033F00081E0890F803109F480E020911F01921350
:1034000002C080931F0180932201089580912201C0
:1034100090912101981739F02DE2829FC00111246B
:103420008D5D9E4F089580E090E00895E091220127
:10343000EF5FE03109F4E0E080912101E81761F0ED
:103440008DE2E89FF0011124ED5DFE4F61897289E4
:10345000838994890C94B33960E070E0CB010895BE
:1034600081E02091220190912001291380E00895AC
:103470002F923F924F925F926F927F928F929F9284
:10348000AF92BF92CF92DF92EF92FF920F931F9372
:10349000CF93DF93CDB7DEB7E9970FB6F894DEBFD1
:1034A0000FBECDBF142F5FA368A779A7922E08ABDC
:1034B000209121013DE2239F10011124F101ED5DD6
:1034C000FE4F1F01158616861786108A15A216A2B2
:1034D00017A210A6108249E956E766E97EE741A3E4
:1034E00052A363A374A3C1A6D2A6E3A6F4A62CE0BC
:1034F000002319F0E5E9F5E002C0E3E0F1E0DE01C8
:103500001D9601900D922A95E1F76C0140E7E42E9B
:1035100046E0F42E9E01275E3F4F3FA72EA7CE0127
:103520000D969DA78CA75101FE013196FBA7EAA736
:1035300000E0F60161917191819191916F01F70124
:1035400020813181428153810E9426390E94F638C0
:10355000EEA5FFA56193719381939193FFA7EEA7C9
:10356000ECA5FDA54190519061907190FDA7ECA74D
:1035700064197509860997092B013C0197FF07C05B
:10358000442455243201461A570A680A790AF5017B
:103590004182528263827482F10125853685478596
:1035A0005089421653066406750610F429013A0143
:1035B000F101458656866786708A0E948A37F70130
:1035C00020813181428153810E94EF362B013C01E1
:1035D000EAA5FBA56193719381939193FBA7EAA759
:1035E00020E030E0A9010E94E83687FF08C0F10121
:1035F0008080802F0E94FB298829F1018083A3010C
:103600009201C301B2010E942639F10125A136A120
:1036100047A150A50E940F36F10165A376A387A3A9
:1036200090A70F5FF4E0EF0EF11C24E0A20EB11C96
:10363000033009F07ECF0E94B3396B017C01F101A8
:1036400065A376A387A390A785859685A785B0896E
:10365000892B8A2B8B2B09F4F2C120E030E0A901E1
:10366000612F7FA188A599A50E94E83687FD21C01A
:10367000992061F0A7019601612F7FA188A599A5E6
:103680000E942639162F7FA388A799A720E030E053
:1036900040E85FE3612F7FA188A599A50E94E836E5
:1036A00087FF0EC010E01FA280E888A79FE399A7BC
:1036B00007C019E9F6E7FFA326E928A73EE739A7DF
:1036C000A701960160E070E080E89FE30E94EF367A
:1036D0006EAB7FAB88AF99AFEFE0F1E0FFA7EEA74D
:1036E0002CE736E03DA72CA7CE010D969EA38DA317
:1036F000FE013196FBA7EAA7C12CD12C7601EAA5E1
:10370000FBA580809180A280B38020E030E0A901F9
:10371000C501B4010E94E836882309F481C02EA9AE
:103720003FA948AD59ADC501B4010E9426394B01EE
:103730005C01EAA5FBA560837183828393839B016F
:10374000AC0160E070E080E89FE30E94EF362B015F
:103750003C01E89477F8ECA5FDA5208131814281F8
:103760005381C301B2010E94263969AB7AAB8BAB9E
:103770009CAB9B01AC01612F7FA188A599A50E94FC
:10378000E83687FF07C019ABFFA1FAAB28A52BAB22
:1037900039A53CABF101F1A1FFA3F101F2A1F8A71A
:1037A000F101F3A1F9A7F101F4A1FDABECA5FDA591
:1037B0002485358546855785C301B2010E94263987
:1037C0003B018C019B01AC016FA178A589A59DA946
:1037D0000E94E83687FF04C06FA078A409A51DA940
:1037E000C301D801F10181A392A3A3A3B4A3EEA5C1
:1037F000FFA52081318142815381C501B4010E941E
:1038000026399B01AC01C701B6010E940E366B013F
:103810007C0119A9FAA9FFA32BA928A73CA939A7BC
:103820008AA59BA504969BA78AA7EEA5FFA534961B
:10383000FFA7EEA72CA53DA52C5F3F4F3DA72CA7CA
:10384000EDA1FEA18E179F0709F059CF909121019C
:1038500080912201981719F0F8A9FF2331F0F101A6
:10386000118A128A138A148A0BC02FEE3FEF4FE79A
:103870005FE3C701B6010E94EB38181634F4F1017A
:10388000118E128E138E148E5FC02FEE3FEF4FE716
:103890005FEBC701B6010E94EB38181644F03FEE0B
:1038A000C32EDD24DA943FE7E32E3FEBF32EA7018E
:1038B000960160E070E080E89FE30E940E3620E011
:1038C00030E040E05FE30E9426390E94B3396B018B
:1038D0007C012091A5063091A6064091A706509143
:1038E000A806F10161A172A183A194A10E942639C9
:1038F000A70196010E9426394B015C01A7019601A0
:1039000060E070E080E89FE30E940E369B01AC010E
:10391000C501B4010E94EF36D62EE72EF82E092FEE
:1039200020E030E0A9010E94E83687FF04C0D12CD6
:10393000E12CF12C00E04D2D5E2D6F2D702FF1014B
:10394000418F528F638F748F212F3FA148A559A5B6
:10395000612F7FA188A599A50E942639162F072FD0
:10396000F82EE92E862F902FAF2DBE2DF101858FD9
:10397000968FA78FB0A3A18CB28CC38CD48C60908F
:103980001B0170901C0180901D0190901E019301FD
:10399000A401612F702F8F2D9E2D0E94E83687FD88
:1039A0000BC09301A401B501C6010E94E83687FD52
:1039B00011C0530164010EC0212F302F4F2D5E2DF9
:1039C000B501C6010E94E83687FD04C0A12EB02EC5
:1039D000CF2CDE2CC501D601F101858B968BA78BF0
:1039E000B08FF8A9F1112DC08CE0FE013196AFE047
:1039F000B1E001900D928A95E1F7812F902FAF2DC4
:103A0000BE2D80931B0190931C01A0931D01B093C8
:103A10001E018CE0FE017996A3E0B1E001900D92C9
:103A20008A95E1F780912001809321018F5F803199
:103A300009F480E0809320010E94C61802C080E053
:103A400001C081E0E9960FB6F894DEBF0FBECDBF8E
:103A5000DF91CF911F910F91FF90EF90DF90CF906A
:103A6000BF90AF909F908F907F906F905F904F909E
:103A70003F902F9008958091950590919605A09183
:103A80009705B09198058093030190930401A0934A
:103A90000501B09306018091990590919A05A09136
:103AA0009B05B0919C058093070190930801A0931A
:103AB0000901B0930A0180919D0590919E05A09106
:103AC0009F05B091A00580930B0190930C01A093EA
:103AD0000D01B0930E010895809121019091220172
:103AE000891708F4805F891B08950E94F22D809148
:103AF000220180931F010C94C618CF93DF93EC0131
:103B00008991882319F00E946D26FACFDF91CF9119
:103B10000895CF93DF93FC018491EF0121968823D0
:103B200021F00E946D26FE01F7CFDF91CF9108951D
:103B3000EF92FF920F931F93CF93DF931F92CDB716
:103B4000DEB7262FEDB6FEB66DB77EB7641B7109E2
:103B50000FB6F8947EBF0FBE6DBF0DB71EB70F5FD7
:103B60001F4F302FF8019E2F931B941728F4622FBC
:103B70000E94133A9193F7CF442361F0F801E40FC8
:103B8000F11D31978081805D49830E946D264981B6
:103B90004150F2CF0FB6F894FEBE0FBEEDBE0F90AF
:103BA000DF91CF911F910F91FF90EF90089548E022
:103BB00062E00C94981D8A3020F0843620F442E0B4
:103BC00003C041E001C043E06AE00C94981DBF923D
:103BD000CF92DF92EF92FF920F931F93CF93DF93D9
:103BE000CDB7DEB72A970FB6F894DEBF0FBECDBFB4
:103BF000611571058105910591F480E32A960FB650
:103C0000F894DEBF0FBECDBFDF91CF911F910F9112
:103C1000FF90EF90DF90CF90BF900C946D2620E046
:103C20003AE0C32ED12CE12CF12CBB24B394B20E7C
:103C300001E010E00C0F1D1F020F111DA7019601DE
:103C40000E941F3AF8016083B901CA01611571052C
:103C50008105910511F02B2DE8CFBB2049F0FE0125
:103C6000EB0DF11D8081805D0E946D26BA94F5CF29
:103C70002A960FB6F894DEBF0FBECDBFDF91CF916D
:103C80001F910F91FF90EF90DF90CF90BF9008951C
:103C9000CF92DF92EF92FF926B017C0197FF0AC0F7
:103CA0008DE20E946D2666277727CB016C197D096E
:103CB0008E099F09FF90EF90DF90CF900C94E71D45
:103CC0008F929F92AF92BF92CF92DF92EF92FF922C
:103CD0000F931F93CF93DF93CDB7DEB72A970FB61D
:103CE000F894DEBF0FBECDBF6B017C01142F20E026
:103CF00030E0A9010E94E83687FF07C08DE20E94EC
:103D00006D26F7FAF094F7F8F094012F023060F086
:103D100020E030E048EC52E4C701B6010E942639A9
:103D20006B017C010250F2CF10FF0AC020E030E0AE
:103D300040E251E4C701B6010E9426396B017C01C3
:103D400020E030E040E05FE3C701B6010E940F369B
:103D50000E945737E1E0F0E0EC0FFD1FE10FF11D8D
:103D60002EE22083D12C5AE0852E912CA12CB12C4F
:103D70006115710581059105A9F0D11201C0D39497
:103D8000EE24E394F12CEC0EFD1EED0CF11CA501CC
:103D900094010E941F3A605DF7016083B901CA0176
:103DA000D394E6CF80E3D11648F4E1E0F0E0EC0FE5
:103DB000FD1FED0DF11D8083D394F5CF8D2DD11214
:103DC0000BC0D394D3948F5FE1E0F0E0EC0FFD1FC4
:103DD000E80FF11D80E38083DD2041F0FE01ED0D51
:103DE000F11D80810E946D26DA94F6CF2A960FB6D7
:103DF000F894DEBF0FBECDBFDF91CF911F910F9121
:103E0000FF90EF90DF90CF90BF90AF909F908F90FA
:103E100008952091B50620FF08C02BE832E441E266
:103E20005DE30E94263944E001C043E00C94601E2B
:103E30002091B50620FF08C02BE832E441E25DE3A3
:103E40000E94263941E001C040E00C94601E43E02E
:103E50000C94601E40E00C94601E1092AF0590918F
:103E6000B50697FD03C090E29093AF05882331F02B
:103E70008091AF0590E289278093AF0508953D9822
:103E8000459A80E00C942D1F86B180729091AF0509
:103E900089270895809102018130A1F40E94441F76
:103EA000882381F0109202018CE0E5E9F5E0A1EAB7
:103EB000B5E001900D928A95E1F78091010180644F
:103EC00080930101089582E00C94E835CF93DF934D
:103ED000C0910001CC2339F181E080939105C1FDAF
:103EE0000FC0C2FF02C082E00BC0C3FF02C083E06C
:103EF00007C0C4FF02C084E003C0C5FF03C085E063
:103F00000E949E21C0FD04C08FEF0E9404360BC0AA
:103F100081E00E94C82180E10E94F1358091010179
:103F200084FFFCCFF1CFC0910101CC2309F4B2C0D2
:103F3000C4FF04C081E080939005B4C0C0FF05C0F9
:103F40000E94172581E00E94F135DC2FD87609F414
:103F500047C080919105882351F0982F9C77E9F113
:103F6000883029F40E94F22D84E08093940580919A
:103F70009105811106C091E09093920592E0909393
:103F80009405C6FF0AC0883019F480E48093910537
:103F900080919205806480939205C3FF07C0809151
:103FA0009105803219F080E180939105C5FF15C01D
:103FB00086E00E94C82180919205982F98729832CD
:103FC00021F4837E826080939205809192058062C5
:103FD0008093920580E28093910588E60E94F135F6
:103FE000C1FF38C0D11133C080919105882331F0D1
:103FF000807569F18091920580FF29C080919205BA
:10400000982F9472943239F484FD02C0886001C004
:104010008F7D809392058091920585FD18C0109246
:1040200094050E94061A892B71F08091920586FDF5
:104030000AC01092920588E0809391050E94162E86
:104040000E94F72A04C0109292051092910582E016
:104050000E94F135C2FF1EC080919105807399F0D6
:104060008091930581110FC00E94751D9091940558
:1040700092FF05C080919205816080939205937FA5
:104080009093940504C0109292051092910584E0DB
:104090000E94F135809191058C7721F0DF91CF91CD
:1040A0000C94162EDF91CF910895CF930E94661F36
:1040B00080919205882309F45FC0C0E18091920548
:1040C000882309F459C090919005911155C0982FFB
:1040D0009172913209F04DC082FD0BC00E940F2AEF
:1040E0000E94E304809192058D7F84608093920505
:1040F00040C080919105803231F40E941B348111BF
:1041000002C0C09391059091920593FF32C08091B7
:104110002105882399F091FD11C04091220550910D
:10412000230560912405709125050E941F2A41E016
:1041300060E070E080E890E40E94641880912005BF
:10414000882369F09091920591FD09C00E94E804CE
:1041500041E060E070E080E89FE30E946418809195
:10416000920581FD06C080618093920582E00E94E5
:10417000E8350E94661FA2CFCF910895CF93DF93B9
:104180000E94F72180919105813021F482E00E9404
:10419000C82130C0109291050E941B34882339F049
:1041A000809101018062809301010E94552083EF7C
:1041B00093E00E941D341EC08D3061F0CC2399F134
:1041C000893209F4CD7F0E94B3268F3F09F448C09D
:1041D0008A3091F70E94552080919005811149C045
:1041E000ED2FF0E0ED50FC4F1082C0FF06C08BE0D9
:1041F0000E944D21D0E0C0E0E6CF8091F3038823F8
:10420000B9F3843229F483EF93E00E943C34F0CF79
:1042100080919105813011F489E0EACF83EF93E03A
:104220000E94CE05E5CF813270F28F3261F2883282
:1042300089F08B3389F0DF3488F42D2F30E0DF5F95
:104240009FE9980FF901ED50FC4F9A3108F4805224
:104250008083B9CFC2E0B7CFC4E0B5CFC1E0B3CF60
:104260000E94631F0E94552080919005882309F4C5
:10427000AACFDF91CF9108950E94631F0E9455201D
:1042800080919005811108C00E94061A892BB1F710
:1042900080919105883091F30895CF93C82F8111B3
:1042A00003C088E998E047C080E998E00E94891D32
:1042B0004C2F50E0FA013197E631F10598F5E75AB5
:1042C000FF4F0C94413A88E798E002C086E698E0F8
:1042D0000E94891D2EC084E598E0FACF8AE498E018
:1042E000F7CF89E398E0F4CF8AE298E0F1CF89E054
:1042F00098E0EECF80E098E0EBCF85EF97E0E8CF55
:1043000082EE97E0E5CF84ED97E0E2CF89EC97E08D
:10431000DFCF83EB97E0DCCF8FE997E0D9CF8BE855
:1043200097E0D6CF89E797E00E94891D8C2F0E94E5
:10433000DB1D86E797E0CF910C94891DCF93C82FA2
:104340008EE697E00E94891DC33091F03CF4C130A5
:1043500061F0C230A1F488E597E00FC0C43059F095
:10436000C53069F48EE297E008C083E697E005C0A7
:1043700085E497E002C08AE397E00E94891D8BE202
:1043800097E00E94891D84EF91E0CF910C949518DD
:10439000CF93C82F89E297E00E94891D8C2F90E06F
:1043A000FC013197E830F105E8F4E159FF4F0C9436
:1043B000413A87E197E014C083E097E011C081EFB4
:1043C00096E00EC089EE96E00BC080EE96E008C045
:1043D00085ED96E005C08DEC96E002C08AEB96E094
:1043E0000E94891D86EB96E0CF910C94891D89E986
:1043F00096E00C94891D85E595E00C94891DFF924B
:104400000F931F93CF93DF9381E595E00E94891D61
:104410008091A0060E94DB1D88E395E00E94891D23
:104420008091A3060E94DB1D8AE195E00E94891D10
:104430008091A1060E94DB1D81E095E00E94891D0C
:104440008091A1060E94D71D8AEF94E00E94891DE9
:104450008091A2060E94DB1D82EE94E00E94891DDD
:104460008091A2060E94D71D8BED94E00E94891DC9
:104470008091B50682FB882780F90E94DB1D8AEBBC
:1044800094E00E94891D8091B50686FB882780F9FB
:104490000E94DB1D8AE994E00E94891D8091B50687
:1044A000881F8827881F0E94DB1D8AE794E00E94EE
:1044B000891D8091A4060E94DB1D84E694E00E9481
:1044C000891D8091A4060E94D71D8CE594E00E946E
:1044D000891D6091A5067091A6068091A70690910E
:1044E000A8060E94271F8CE394E00E94891D60911A
:1044F000A9067091AA068091AB069091AC060E9425
:10450000271F81E294E00E94891D8091B506817089
:104510000E94DB1D84E094E00E94891D8091B50615
:1045200085FB882780F90E94DB1D89EE93E00E94BD
:10453000891D8091B50683FB882780F90E94DB1DC9
:104540008EEC93E00E94891D8091B5068295817062
:104550000E94DB1D82EB93E00E94891D8091B606CC
:104560000E94DB1D88E993E00E94891D8091B606B8
:104570000E94D71D80E993E00E94891D6091B706D3
:104580007091B8068091B9069091BA060E94271FD3
:1045900083E793E00E94891D6091BB067091BC0681
:1045A0008091BD069091BE060E94271F86E593E08C
:1045B0000E94891D8091BF060E94DB1D87E393E066
:1045C0000E94891D6091C1067091C2068091C30648
:1045D0009091C4060E94271F8AE193E00E94891DE2
:1045E0006091AD067091AE068091AF069091B006D5
:1045F0000E942A1F89E093E00E94891D6091B10604
:104600007091B2068091B3069091B4060E942A1F61
:104610008CEF92E00E94891D84E6F82E10E0C0E73E
:10462000D6E000E08AEF92E00E94891D802F8F0D76
:104630000E94DB1D88EF92E00E94891D123071F00C
:104640001330B9F0113029F0688179818A819B811A
:1046500017C06C857D858E859F8512C020E030E077
:1046600041E655E4688D798D8A8D9B8D0E94EF36E9
:1046700007C08CA19DA1AEA1BFA1BC01CD019058E6
:104680000E94271F85EF92E00E94891D013029F0CA
:10469000023031F083EF92E005C081EF92E002C07A
:1046A0008FEE92E00E94891D123051F0133059F0C4
:1046B000113019F085EE92E008C083ED92E005C05C
:1046C00082EC92E002C082EB92E00E94891D8EEAA9
:1046D00092E00E94891D0F5F2496033009F0A2CF5B
:1046E0008AE0F80E1F5F8CE8F81299CFDF91CF9126
:1046F0001F910F91FF900895CF9388EA92E00E9456
:10470000891DC0E06C2F81EA95E00E94B4350E94BB
:10471000091FC23021F086EA92E00E94891DCF5F16
:10472000C33081F784EA92E00E94891D8091AD0533
:104730000E94DB1D80EA92E0CF910C94891DEF92DC
:10474000FF920F931F93CF93DF93CDB7DEB72C97D4
:104750000FB6F894DEBF0FBECDBFF12CBE016F5F68
:104760007F4F8F2D0E949728811104C087E00E94FF
:104770004D2169C08DE992E00E94891D86E0F816FE
:1047800031F0E7E0FE1208C087E992E002C08AE952
:1047900092E00E94891D04C086E38F0D0E94DB1DFC
:1047A00085E992E00E94891D8E010F5F1F4FE12C69
:1047B000F80161917191819191918F010E94091F7E
:1047C000F2E0EF1619F083E992E002C08FE892E080
:1047D0000E94891DE39483E0E812EACFF394E8E0B5
:1047E000FE12BCCF89E892E00E94891D07E415E023
:1047F000F12CF80161917191819191918F010E9449
:10480000091FF2E0FF1619F087E892E002C083E882
:1048100092E00E94891DF39483E0F812EACF8DE7BD
:1048200092E00E94891D609153057091540580911A
:104830005505909156050E94091F89E792E00E9454
:10484000891D0E947C232C960FB6F894DEBF0FBE04
:10485000CDBFDF91CF911F910F91FF90EF90089501
:1048600087E792E00E94891D80911805823091F0BF
:1048700038F4882361F08130A9F481E792E00CC01C
:10488000833069F0883071F487E692E005C084E7F0
:1048900092E002C08EE692E00E94891D0CC08BE679
:1048A00092E0FACF82E692E00E94891D809118057D
:1048B00082500E94DB1D8FE592E00E94891D80914D
:1048C0001E058A5C0E94DB1D80911C05813049F029
:1048D00028F0823051F480E592E005C08AE592E04C
:1048E00002C085E592E00E94891D80911A05811120
:1048F00003C08BE492E002C086E492E00E94891D2E
:1049000080911B05811103C081E492E002C08CE319
:1049100092E00E94891D80911905813019F487E386
:1049200092E002C082E392E00E94891D80911F05FF
:10493000813049F028F0823051F486E292E005C0DF
:104940008EE292E002C08AE292E00E94891D80918C
:104950002105813031F040F0823051F48EE192E057
:1049600005C082E292E002C08AE192E00E94891DC5
:1049700080912005882329F0823039F482E192E089
:1049800002C086E192E00E94891D8FE092E00E94C1
:10499000891D80912A050E94DB1D8CE092E00E9417
:1049A000891D6091260570912705809128059091B9
:1049B00029050E94181F89E092E00E94891D6091DC
:1049C00022057091230580912405909125050E9470
:1049D0002A1F85E092E00C94891D1F93CF93DF93EB
:1049E000182FEB0182E092E00E94891D812F0E9426
:1049F000DB1D80E092E00E94891DCE010E947D1D9A
:104A00008DEF91E0DF91CF911F910C94891DCF9391
:104A1000DF93EC018DED91E00E94891DCE010E9493
:104A20007D1D89ED91E0DF91CF910C94891DBF929E
:104A3000CF92DF92EF92FF920F931F93CF93DF936A
:104A4000CDB7DEB768970FB6F894DEBF0FBECDBF07
:104A50008CE0E5E9F5E0DE011D9601900D928A9566
:104A6000E1F7809191058430E9F040F48130E9F07C
:104A700080F0823009F584EB91E01CC0803179F040
:104A800018F4883049F018C0803291F0803421F059
:104A900013C083ED91E00EC08EEC91E00BC088EC6A
:104AA00091E008C082EC91E005C08BEB91E002C080
:104AB0008EEA91E00E94891D8091A406837039F0EE
:104AC000BE01635F7F4FCE0101960E94CE3580917B
:104AD000A40680FD05C08091A40681FF6DC01FC0A3
:104AE00087EA91E00E94891D69817A818B819C818E
:104AF0000E94091F85EA91E00E94891D6D817E81D7
:104B00008F8198850E94091F85EA91E00E94891D86
:104B100069857A858B859C850E94091FDCCF8EE98B
:104B200091E00E94891D9BE3E92E95E0F92E8E010C
:104B30000F5F1F4FB12C6801F70161917191819155
:104B400091917F0120853185428553850E940F36E2
:104B50009B01AC01F80160817181828193810E9487
:104B60000E36F8016083718382839383F2E0BF1273
:104B70000FC0209153053091540540915505509137
:104B800056050E940E36F8016083718382839383F9
:104B90000C5F1F4FF60160817181828193810E94B9
:104BA000091FF2E0BF1621F08CE991E00E94891DF7
:104BB000B39423E0B212BFCF8091A40682FF08C055
:104BC00086E991E00E94891D0E946C1D0E94DB1DF8
:104BD0008091A40683FF08C081E991E00E94891DAD
:104BE0000E944E260E94DB1D8CE891E00E94891DE8
:104BF0000E94061A009731F0FC0161A572A583A5F9
:104C000094A503C060E070E0CB010E94481E809133
:104C1000A406807779F186E891E00E94891D809151
:104C2000A40684FF06C00E949F1043E062E00E9439
:104C3000981D84E891E00E94891D8091A40685FF5B
:104C40000BC00E94441F882319F082E891E002C043
:104C500080E891E00E94891D8EE791E00E94891D05
:104C60008091A40686FF06C00E94D43343E062E030
:104C70000E94981D8AE791E00E94891D68960FB6F0
:104C8000F894DEBF0FBECDBFDF91CF911F910F9182
:104C9000FF90EF90DF90CF90BF90089590914504E2
:104CA00080914604891708F48058891B0895E0EC28
:104CB000F0E08081826080831092C50080E1809363
:104CC000C400E1ECF0E080818061808380818860B5
:104CD00080838081806880830895E091440491E01E
:104CE0009E0F903409F490E020914304921305C084
:104CF0002091010124FFF8CF0895F0E0E055FA4F2C
:104D00008083909344048091C10080628093C100AD
:104D100008951F920F920FB60F9211248F939F93B5
:104D2000EF93FF9380914304E82FF0E0E055FA4FB2
:104D300090819093C6008F5F803409F480E0809367
:104D4000430490914404891305C08091C1008F7D74
:104D50008093C100FF91EF919F918F910F900FBEB3
:104D60000F901F90189590914504809146048917E3
:104D700061F0E92FF0E0E051FA4F80819F5F9038B9
:104D800009F490E09093450408958FEF08951F92E1
:104D90000F920FB60F9211242F933F934F935F936F
:104DA0006F937F938F939F93AF93BF93EF93FF93F3
:104DB0008091C6008F3369F030F4883181F0813200
:104DC00089F488E009C0803431F08E3759F482E0EC
:104DD00003C081E001C080E20E94E83514C00E9457
:104DE000941711C0E091460491E09E0F903809F4A9
:104DF00090E020914504921731F0F0E0E051FA4F35
:104E0000808390934604FF91EF91BF91AF919F9162
:104E10008F917F916F915F914F913F912F910F9063
:104E20000FBE0F901F901895809146048093450403
:104E3000089521E5829FC001112440E550E09D5F67
:104E40000C94330540E550E0BC018EEA93E00C94ED
:104E500033052DE0829FC00111244CE050E09E5F9D
:104E60000C9433056AE080E090E00E94110545E56E
:104E700050E060E776E081E090E00C943305EF923B
:104E8000FF920F931F93CF93DF93CDB7DEB72C978D
:104E90000FB6F894DEBF0FBECDBF182F80FFE3C062
:104EA0008AE08093A0068FEF8093A3061092A1065C
:104EB00021E02093A2068FE78093A4068AE097ED75
:104EC000A3EABCE38093A5069093A606A093A70649
:104ED000B093A8068FE692E1A3E0BBE38093A90616
:104EE0009093AA06A093AB06B093AC0680E090E442
:104EF000ACE1B6E48093AD069093AE06A093AF0606
:104F0000B093B0061092B1061092B2061092B3069A
:104F10001092B4062093B60680E090E0A8E4B2E4D4
:104F20008093B7069093B806A093B906B093BA06DB
:104F300080E090E4A3E8B4E48093BB069093BC06C1
:104F4000A093BD06B093BE0685E090E09093C006A6
:104F50008093BF0683E393E3A3E3BFE38093C1069B
:104F60009093C206A093C306B093C40688E38093CF
:104F7000B50640E050E068EC73E44093700650934F
:104F80007106609372067093730640937406509393
:104F90007506609376067093770640937806509373
:104FA000790660937A0670937B0640E050E06AE7EA
:104FB00074E440937C0650937D0660937E06709364
:104FC0007F0640938006509381066093820670931B
:104FD00083064093840650938506609386067093FB
:104FE000870640E050EF62ED77E4409388065093E7
:104FF000890660938A0670938B0640938C065093C3
:105000008D0660938E0670938F06409390065093A2
:105010009106609392067093930680E090E0A6E973
:10502000B2EC8093940690939506A0939606B09365
:10503000970680E090E0A0E3B3EC8093980690930D
:105040009906A0939A06B0939B0680E090E0A2E7B1
:10505000B2EC80939C0690939D06A0939E06B0931D
:105060009F060E94322711FF10C0CE0101967C01DD
:105070008CE0F70111928A95E9F700E0B701802FE3
:105080000E9429270F5F0830C9F712FF0AC060E0AD
:1050900080E093E00E94110560E081E593E00E94CA
:1050A000110513FF05C060E08EEA93E00E94110530
:1050B0002C960FB6F894DEBF0FBECDBFDF91CF9117
:1050C0001F910F91FF90EF9008951F93CF93DF935F
:1050D000182FEB0181E5189FB00111247D5F40E599
:1050E00050E0CE010E947105892B39F41882BE016F
:1050F000812F0E94192780E001C081E0DF91CF91CC
:105100001F910895CF93DF93EC0140E550E06EEAE4
:1051100073E00E947105892B31F41882CE010E9440
:10512000222780E001C081E0DF91CF9108951F9395
:10513000CF93DF93182FEB018DE0189FB00111245E
:105140007E5F4CE050E0CE010E947105892B59F43E
:105150008CE0FE0111928A95E9F7BE01812F0E9431
:10516000292780E001C081E0DF91CF911F91089550
:1051700080E090E00E9409058A3059F445E550E04E
:1051800061E070E080E796E00E94710521E0892BE4
:1051900009F420E0822F0895CF92DF92EF92FF92E0
:1051A000CF93DF93C82F6A017B0120E030E0A90193
:1051B000C701B6010E94E83687FDF8C0C43608F47E
:1051C00045C02CE92C0F80E02330B8F530E0823068
:1051D00079F0F901EE0FFF1FEE0FFF1F833011F181
:1051E000813019F0E059F94F23C0E458F94F20C03D
:1051F000E901CC0FDD1FCC0FDD1FC857D94F20E0D0
:1052000030E040E752E4C701B6010E94263920E0B1
:1052100030E040E752E40E942639688379838A832C
:105220009B83C0C0EC56F94FF7FAF094F7F8F0946E
:10523000C082D182E282F382B5C08F5F2A3008F447
:10524000B7C0843009F4B4C02A50BECFC701B6013C
:105250000E94F4390E945C378C2F90E080329105D7
:1052600008F0A6C0FC01E958FF4F0C94413A6330A6
:1052700008F4A0C06093A00695C06093A30692C0F6
:105280006093A10602C06093A2060E94682D8AC0A6
:105290008091B506662311F0846007C08B7F05C03E
:1052A0008091B506662321F080648093B5067AC0AC
:1052B0008F7BFBCF8091B506662311F08068F5CF18
:1052C0008F77F3CF6093A4066DC0C092A506D092ED
:1052D000A606E092A706F092A80664C0C092A906AE
:1052E000D092AA06E092AB06F092AC065BC0809129
:1052F000B506662311F08160D8CF8E7FD6CF80911E
:10530000B506662321F084FF57C08062CECF8F7D23
:10531000CCCF8091B506662311F0886001C0877FED
:105320008093B5060E9488103DC08091B506662323
:1053300011F08061BACF8F7CB8CF6093B60632C0CF
:10534000C092B706D092B806E092B906F092BA06BB
:1053500029C0C092BB06D092BC06E092BD06F09276
:10536000BE0620C070E07093C0066093BF061AC0EE
:10537000C092C106D092C206E092C306F092C40663
:1053800011C0C092AD06D092AE06E092AF06F09288
:10539000B00608C0C092B106D092B206E092B30641
:1053A000F092B4060E94322780E007C084E005C076
:1053B00083E003C086E001C08AE0DF91CF91FF90D7
:1053C000EF90DF90CF9008950E94B828811108C017
:1053D00087E00E944D218FEF0E943F270C94FF2110
:1053E0000895882321F0813021F488E0089584E035
:1053F000089580E10895882321F0813021F480E42C
:10540000089580E2089580E80895882321F081308E
:1054100021F484E0089582E0089580E10895E0EBAE
:10542000F0E080818F7780830895239A83E08093D2
:10543000B00082E08093B100259A0C940F2A8F92DD
:105440009F92AF92BF92CF92DF92EF92FF920F9313
:105450001F93CF93DF936A017B0190919005911187
:1054600091C081110EC0DF91CF911F910F91FF90DC
:10547000EF90DF90CF90BF90AF909F908F900C9463
:105480000F2A813011F42D9801C02D9A20E030E0D0
:10549000A901B601C7010E94E83687FDE4CF00915B
:1054A000AD061091AE06D091AF06C091B0068090C7
:1054B000B1069090B206A090B306B090B4069401E5
:1054C000A501B8018D2F9C2F0E94E83618160CF00C
:1054D0003EC098014D2F5C2FB601C7010E94EB38EA
:1054E00018161CF46801ED2EFC2E9401A501B601DE
:1054F000C7010E94E83687FF02C06401750194016C
:10550000A501B601C7010E940E366B017C01940112
:10551000A501B8018D2F9C2F0E940E369B01AC0176
:1055200060E070E08FE793E40E94EF369B01AC01EE
:10553000C701B6010E94263920E030E040E05FE379
:105540000E940F360E94C5370E945C3701C06FEF82
:105550008091B00080688093B000E62FF0E0E356C1
:10556000F74FD491C091B300CD1761F0DC1710F460
:10557000C15001C0CF5FC093B30082E090E00E94B1
:105580009518F2CFDF91CF911F910F91FF90EF907F
:10559000DF90CF90BF90AF909F908F900895CF9362
:1055A000DF9300D000D01F92CDB7DEB79091910568
:1055B0009230A9F04A835B836C837D8389830E9448
:1055C0003C214A815B816C817D8189810F900F90A4
:1055D0000F900F900F90DF91CF910C941F2A0F9096
:1055E0000F900F900F900F90DF91CF9108958091C1
:1055F000B50682FF02C0289A01C0289880917704DE
:1056000080938B048091780480938A048091A00613
:10561000880F845081958093890480916F00826007
:1056200080936F00089580916F008D7F80936F004D
:1056300080918100887F8160809381001092760440
:105640008091A3068F3F21F490910001992349F0A6
:1056500090919105943029F090E00E94951881E096
:1056600001C080E09091B50692FF02C091E08927C9
:10567000882311F0289A0895289808951F920F9270
:105680000FB60F9211242F933F934F935F936F9315
:105690007F938F939F93AF93BF93CF93DF93EF93BA
:1056A000FF93809176048111EAC19BB180918B04B4
:1056B000807E9F71892B8BB98BB1837E90918A04F8
:1056C000892B8BB98091890486BD82E085BD81E0FC
:1056D00080937604789480919D0490919E04892B08
:1056E00009F09FC080917B0490917A04981709F487
:1056F00092C0E0917B0486E0E89FF0011124E1561E
:10570000FB4FF0939E04E0939D04838194819093DA
:10571000890080938800808191819093990480937F
:105720009804A28180919A048A1771F1A0939A0437
:1057300081E1A89FD0011124AD53BB4FB0939C04CD
:10574000A0939B041D968D919D910D90BC91A02DD1
:10575000B695A79597958795809384049093850433
:10576000A0938604B093870480938004909381046F
:10577000A0938204B093830480937C0490937D046F
:10578000A0937E04B0937F04C0919B04D0919C04AD
:10579000809177049881892780938B042581898162
:1057A0009A81AB81BC81022E04C0B695A7959795CE
:1057B00087950A94D2F780938C0490938D04A093DC
:1057C0008E04B0938F048D819E81AF81B885022EA7
:1057D00004C0B695A795979587950A94D2F78093BC
:1057E000900490939104A0939204B09393048985BC
:1057F0009A85AB85BC8504C0B695A7959795879586
:105800002A95D2F78093940490939504A0939604DC
:10581000B093970406C00E94132B84E00E94E835E1
:105820002EC10E944A1F10928A0480918C0490918C
:105830008D04A0918E04B0918F0440917C0450910E
:105840007D0460917E0470917F04840F951FA61FD4
:10585000B71F80937C0490937D04A0937E04B09343
:105860007F04E0919B04F0919C04458556856785F3
:105870007089481759076A077B0768F524E0209369
:105880008A044585568567857089841B950BA60B10
:10589000B70B80937C0490937D04A0937E04B09317
:1058A0007F0420818091950590919605A0919705A0
:1058B000B091980525FF04C00197A109B10903C063
:1058C0000196A11DB11D8093950590939605A09317
:1058D0009705B09398058091900490919104A091C0
:1058E0009204B0919304409180045091810460919E
:1058F000820470918304840F951FA61FB71F8093A5
:10590000800490938104A0938204B093830445851E
:10591000568567857089481759076A077B0778F5A8
:1059200020918A04286020938A04458556856785DE
:105930007089841B950BA60BB70B80938004909302
:105940008104A0938204B0938304208180919905FF
:1059500090919A05A0919B05B0919C0526FF04C0EB
:105960000197A109B10903C00196A11DB11D809342
:10597000990590939A05A0939B05B0939C058091FF
:10598000940490919504A0919604B091970440914D
:105990008404509185046091860470918704840F7B
:1059A000951FA61FB71F8093840490938504A0932E
:1059B0008604B093870445855685678570894817A6
:1059C00059076A077B0778F520918A0420612093A4
:1059D0008A044585568567857089841B950BA60BBF
:1059E000B70B8093840490938504A0938604B093AE
:1059F0008704208180919D0590919E05A0919F052F
:105A0000B091A00527FF04C00197A109B10903C007
:105A10000196A11DB11D80939D0590939E05A093B5
:105A20009F05B093A00580919105843039F4809151
:105A3000AE0590918A04892380938A04809198040A
:105A40009091990401979093990480939804892BDD
:105A500069F410929E0410929D0480917B048F5FE4
:105A600080937B04863011F410927B04809178043B
:105A700090918A04892780938A0410927604FF917A
:105A8000EF91DF91CF91BF91AF919F918F917F91D6
:105A90006F915F914F913F912F910F900FBE0F909B
:105AA0001F9018951F920F920FB60F9211248F938B
:105AB0009F939BB1809178048C71937E892B8BB9D5
:105AC00015BC9F918F910F900FBE0F901F9018954E
:105AD000FF920F931F93CF93DF931092780410924D
